{
  "_format": "hh-sol-artifact-1",
  "contractName": "CharityDonation",
  "sourceName": "contracts/charityDonation.sol",
  "abi": [
    {
      "inputs": [],
      "stateMutability": "nonpayable",
      "type": "constructor"
    },
    {
      "anonymous": false,
      "inputs": [
        {
          "indexed": true,
          "internalType": "address",
          "name": "donor",
          "type": "address"
        },
        {
          "indexed": false,
          "internalType": "uint256",
          "name": "amount",
          "type": "uint256"
        },
        {
          "indexed": false,
          "internalType": "string",
          "name": "institutionId",
          "type": "string"
        }
      ],
      "name": "DonationReceived",
      "type": "event"
    },
    {
      "anonymous": false,
      "inputs": [
        {
          "indexed": true,
          "internalType": "string",
          "name": "institutionId",
          "type": "string"
        }
      ],
      "name": "InstitutionApproved",
      "type": "event"
    },
    {
      "anonymous": false,
      "inputs": [
        {
          "indexed": true,
          "internalType": "string",
          "name": "institutionId",
          "type": "string"
        }
      ],
      "name": "InstitutionRegistered",
      "type": "event"
    },
    {
      "inputs": [
        {
          "internalType": "string",
          "name": "id",
          "type": "string"
        }
      ],
      "name": "approveInstitution",
      "outputs": [],
      "stateMutability": "nonpayable",
      "type": "function"
    },
    {
      "inputs": [
        {
          "internalType": "string",
          "name": "institutionId",
          "type": "string"
        }
      ],
      "name": "donate",
      "outputs": [],
      "stateMutability": "payable",
      "type": "function"
    },
    {
      "inputs": [
        {
          "internalType": "uint256",
          "name": "",
          "type": "uint256"
        }
      ],
      "name": "donations",
      "outputs": [
        {
          "internalType": "address",
          "name": "donor",
          "type": "address"
        },
        {
          "internalType": "uint256",
          "name": "amount",
          "type": "uint256"
        },
        {
          "internalType": "uint256",
          "name": "timestamp",
          "type": "uint256"
        },
        {
          "internalType": "string",
          "name": "institutionId",
          "type": "string"
        }
      ],
      "stateMutability": "view",
      "type": "function"
    },
    {
      "inputs": [],
      "name": "getAllDonations",
      "outputs": [
        {
          "components": [
            {
              "internalType": "address",
              "name": "donor",
              "type": "address"
            },
            {
              "internalType": "uint256",
              "name": "amount",
              "type": "uint256"
            },
            {
              "internalType": "uint256",
              "name": "timestamp",
              "type": "uint256"
            },
            {
              "internalType": "string",
              "name": "institutionId",
              "type": "string"
            }
          ],
          "internalType": "struct CharityDonation.Donation[]",
          "name": "",
          "type": "tuple[]"
        }
      ],
      "stateMutability": "view",
      "type": "function"
    },
    {
      "inputs": [],
      "name": "getInstitutions",
      "outputs": [
        {
          "components": [
            {
              "internalType": "string",
              "name": "id",
              "type": "string"
            },
            {
              "internalType": "string",
              "name": "name",
              "type": "string"
            },
            {
              "internalType": "string",
              "name": "description",
              "type": "string"
            },
            {
              "internalType": "address",
              "name": "wallet",
              "type": "address"
            },
            {
              "internalType": "bool",
              "name": "approved",
              "type": "bool"
            }
          ],
          "internalType": "struct CharityDonation.Institution[]",
          "name": "",
          "type": "tuple[]"
        }
      ],
      "stateMutability": "view",
      "type": "function"
    },
    {
      "inputs": [
        {
          "internalType": "uint256",
          "name": "",
          "type": "uint256"
        }
      ],
      "name": "institutionIds",
      "outputs": [
        {
          "internalType": "string",
          "name": "",
          "type": "string"
        }
      ],
      "stateMutability": "view",
      "type": "function"
    },
    {
      "inputs": [
        {
          "internalType": "string",
          "name": "",
          "type": "string"
        }
      ],
      "name": "institutions",
      "outputs": [
        {
          "internalType": "string",
          "name": "id",
          "type": "string"
        },
        {
          "internalType": "string",
          "name": "name",
          "type": "string"
        },
        {
          "internalType": "string",
          "name": "description",
          "type": "string"
        },
        {
          "internalType": "address",
          "name": "wallet",
          "type": "address"
        },
        {
          "internalType": "bool",
          "name": "approved",
          "type": "bool"
        }
      ],
      "stateMutability": "view",
      "type": "function"
    },
    {
      "inputs": [],
      "name": "owner",
      "outputs": [
        {
          "internalType": "address",
          "name": "",
          "type": "address"
        }
      ],
      "stateMutability": "view",
      "type": "function"
    },
    {
      "inputs": [
        {
          "internalType": "string",
          "name": "id",
          "type": "string"
        },
        {
          "internalType": "string",
          "name": "name",
          "type": "string"
        },
        {
          "internalType": "string",
          "name": "description",
          "type": "string"
        },
        {
          "internalType": "address",
          "name": "wallet",
          "type": "address"
        }
      ],
      "name": "registerInstitution",
      "outputs": [],
      "stateMutability": "nonpayable",
      "type": "function"
    }
  ],
  "bytecode": "0x6080604052348015600f57600080fd5b50336000806101000a81548173ffffffffffffffffffffffffffffffffffffffff021916908373ffffffffffffffffffffffffffffffffffffffff160217905550611d5f8061005f6000396000f3fe6080604052600436106100865760003560e01c8063b5aebc8011610059578063b5aebc8014610135578063c622831714610151578063e6b4b63d1461017a578063ea6509f8146101b7578063f8626af8146101f857610086565b80633793875b1461008b57806338a59a07146100b4578063876d032e146100df5780638da5cb5b1461010a575b600080fd5b34801561009757600080fd5b506100b260048036038101906100ad919061115f565b610238565b005b3480156100c057600080fd5b506100c96103bf565b6040516100d691906113e6565b60405180910390f35b3480156100eb57600080fd5b506100f461051a565b6040516101019190611569565b60405180910390f35b34801561011657600080fd5b5061011f610829565b60405161012c919061159a565b60405180910390f35b61014f600480360381019061014a91906115b5565b61084d565b005b34801561015d57600080fd5b50610178600480360381019061017391906115b5565b610aae565b005b34801561018657600080fd5b506101a1600480360381019061019c919061162a565b610bbb565b6040516101ae91906116a1565b60405180910390f35b3480156101c357600080fd5b506101de60048036038101906101d991906115b5565b610c67565b6040516101ef9594939291906116d2565b60405180910390f35b34801561020457600080fd5b5061021f600480360381019061021a919061162a565b610e78565b60405161022f9493929190611749565b60405180910390f35b6040518060a001604052808581526020018481526020018381526020018273ffffffffffffffffffffffffffffffffffffffff1681526020016000151581525060028560405161028891906117d1565b908152602001604051809103902060008201518160000190816102ab91906119f4565b5060208201518160010190816102c191906119f4565b5060408201518160020190816102d791906119f4565b5060608201518160030160006101000a81548173ffffffffffffffffffffffffffffffffffffffff021916908373ffffffffffffffffffffffffffffffffffffffff16021790555060808201518160030160146101000a81548160ff02191690831515021790555090505060038490806001815401808255809150506001900390600052602060002001600090919091909150908161037691906119f4565b508360405161038591906117d1565b60405180910390207f51403b4a82fa19d4c5d2c68db6f122f5ac878202af0e97dd82e59769856e980a60405160405180910390a250505050565b60606001805480602002602001604051908101604052809291908181526020016000905b8282101561051157838290600052602060002090600402016040518060800160405290816000820160009054906101000a900473ffffffffffffffffffffffffffffffffffffffff1673ffffffffffffffffffffffffffffffffffffffff1673ffffffffffffffffffffffffffffffffffffffff168152602001600182015481526020016002820154815260200160038201805461048090611817565b80601f01602080910402602001604051908101604052809291908181526020018280546104ac90611817565b80156104f95780601f106104ce576101008083540402835291602001916104f9565b820191906000526020600020905b8154815290600101906020018083116104dc57829003601f168201915b505050505081525050815260200190600101906103e3565b50505050905090565b6060600060038054905067ffffffffffffffff81111561053d5761053c610fd6565b5b60405190808252806020026020018201604052801561057657816020015b610563610f60565b81526020019060019003908161055b5790505b50905060005b6003805490508110156108215760026003828154811061059f5761059e611ac6565b5b906000526020600020016040516105b69190611b78565b90815260200160405180910390206040518060a00160405290816000820180546105df90611817565b80601f016020809104026020016040519081016040528092919081815260200182805461060b90611817565b80156106585780601f1061062d57610100808354040283529160200191610658565b820191906000526020600020905b81548152906001019060200180831161063b57829003601f168201915b5050505050815260200160018201805461067190611817565b80601f016020809104026020016040519081016040528092919081815260200182805461069d90611817565b80156106ea5780601f106106bf576101008083540402835291602001916106ea565b820191906000526020600020905b8154815290600101906020018083116106cd57829003601f168201915b5050505050815260200160028201805461070390611817565b80601f016020809104026020016040519081016040528092919081815260200182805461072f90611817565b801561077c5780601f106107515761010080835404028352916020019161077c565b820191906000526020600020905b81548152906001019060200180831161075f57829003601f168201915b505050505081526020016003820160009054906101000a900473ffffffffffffffffffffffffffffffffffffffff1673ffffffffffffffffffffffffffffffffffffffff1673ffffffffffffffffffffffffffffffffffffffff1681526020016003820160149054906101000a900460ff16151515158152505082828151811061080957610808611ac6565b5b6020026020010181905250808060010191505061057c565b508091505090565b60008054906101000a900473ffffffffffffffffffffffffffffffffffffffff1681565b60003411610890576040517f08c379a000000000000000000000000000000000000000000000000000000000815260040161088790611c01565b60405180910390fd5b6002816040516108a091906117d1565b908152602001604051809103902060030160149054906101000a900460ff166108fe576040517f08c379a00000000000000000000000000000000000000000000000000000000081526004016108f590611c6d565b60405180910390fd5b600160405180608001604052803373ffffffffffffffffffffffffffffffffffffffff16815260200134815260200142815260200183815250908060018154018082558091505060019003906000526020600020906004020160009091909190915060008201518160000160006101000a81548173ffffffffffffffffffffffffffffffffffffffff021916908373ffffffffffffffffffffffffffffffffffffffff160217905550602082015181600101556040820151816002015560608201518160030190816109d091906119f4565b5050506002816040516109e391906117d1565b908152602001604051809103902060030160009054906101000a900473ffffffffffffffffffffffffffffffffffffffff1673ffffffffffffffffffffffffffffffffffffffff166108fc349081150290604051600060405180830381858888f19350505050158015610a5a573d6000803e3d6000fd5b503373ffffffffffffffffffffffffffffffffffffffff167ffa5658cbb5d60363acba0d281bddcf21cc9e7ea6053267531b4cdc36d5df7a8a3483604051610aa3929190611c8d565b60405180910390a250565b60008054906101000a900473ffffffffffffffffffffffffffffffffffffffff1673ffffffffffffffffffffffffffffffffffffffff163373ffffffffffffffffffffffffffffffffffffffff1614610b3c576040517f08c379a0000000000000000000000000000000000000000000000000000000008152600401610b3390611d09565b60405180910390fd5b6001600282604051610b4e91906117d1565b908152602001604051809103902060030160146101000a81548160ff02191690831515021790555080604051610b8491906117d1565b60405180910390207f9577044372f8e79698c01ebd2d181006ed0dcd0c304b6dcd247014b3b37f9ccb60405160405180910390a250565b60038181548110610bcb57600080fd5b906000526020600020016000915090508054610be690611817565b80601f0160208091040260200160405190810160405280929190818152602001828054610c1290611817565b8015610c5f5780601f10610c3457610100808354040283529160200191610c5f565b820191906000526020600020905b815481529060010190602001808311610c4257829003601f168201915b505050505081565b600281805160208101820180518482526020830160208501208183528095505050505050600091509050806000018054610ca090611817565b80601f0160208091040260200160405190810160405280929190818152602001828054610ccc90611817565b8015610d195780601f10610cee57610100808354040283529160200191610d19565b820191906000526020600020905b815481529060010190602001808311610cfc57829003601f168201915b505050505090806001018054610d2e90611817565b80601f0160208091040260200160405190810160405280929190818152602001828054610d5a90611817565b8015610da75780601f10610d7c57610100808354040283529160200191610da7565b820191906000526020600020905b815481529060010190602001808311610d8a57829003601f168201915b505050505090806002018054610dbc90611817565b80601f0160208091040260200160405190810160405280929190818152602001828054610de890611817565b8015610e355780601f10610e0a57610100808354040283529160200191610e35565b820191906000526020600020905b815481529060010190602001808311610e1857829003601f168201915b5050505050908060030160009054906101000a900473ffffffffffffffffffffffffffffffffffffffff16908060030160149054906101000a900460ff16905085565b60018181548110610e8857600080fd5b90600052602060002090600402016000915090508060000160009054906101000a900473ffffffffffffffffffffffffffffffffffffffff1690806001015490806002015490806003018054610edd90611817565b80601f0160208091040260200160405190810160405280929190818152602001828054610f0990611817565b8015610f565780601f10610f2b57610100808354040283529160200191610f56565b820191906000526020600020905b815481529060010190602001808311610f3957829003601f168201915b5050505050905084565b6040518060a00160405280606081526020016060815260200160608152602001600073ffffffffffffffffffffffffffffffffffffffff1681526020016000151581525090565b6000604051905090565b600080fd5b600080fd5b600080fd5b600080fd5b6000601f19601f8301169050919050565b7f4e487b7100000000000000000000000000000000000000000000000000000000600052604160045260246000fd5b61100e82610fc5565b810181811067ffffffffffffffff8211171561102d5761102c610fd6565b5b80604052505050565b6000611040610fa7565b905061104c8282611005565b919050565b600067ffffffffffffffff82111561106c5761106b610fd6565b5b61107582610fc5565b9050602081019050919050565b82818337600083830152505050565b60006110a461109f84611051565b611036565b9050828152602081018484840111156110c0576110bf610fc0565b5b6110cb848285611082565b509392505050565b600082601f8301126110e8576110e7610fbb565b5b81356110f8848260208601611091565b91505092915050565b600073ffffffffffffffffffffffffffffffffffffffff82169050919050565b600061112c82611101565b9050919050565b61113c81611121565b811461114757600080fd5b50565b60008135905061115981611133565b92915050565b6000806000806080858703121561117957611178610fb1565b5b600085013567ffffffffffffffff81111561119757611196610fb6565b5b6111a3878288016110d3565b945050602085013567ffffffffffffffff8111156111c4576111c3610fb6565b5b6111d0878288016110d3565b935050604085013567ffffffffffffffff8111156111f1576111f0610fb6565b5b6111fd878288016110d3565b925050606061120e8782880161114a565b91505092959194509250565b600081519050919050565b600082825260208201905092915050565b6000819050602082019050919050565b61124f81611121565b82525050565b6000819050919050565b61126881611255565b82525050565b600081519050919050565b600082825260208201905092915050565b60005b838110156112a857808201518184015260208101905061128d565b60008484015250505050565b60006112bf8261126e565b6112c98185611279565b93506112d981856020860161128a565b6112e281610fc5565b840191505092915050565b60006080830160008301516113056000860182611246565b506020830151611318602086018261125f565b50604083015161132b604086018261125f565b506060830151848203606086015261134382826112b4565b9150508091505092915050565b600061135c83836112ed565b905092915050565b6000602082019050919050565b600061137c8261121a565b6113868185611225565b93508360208202850161139885611236565b8060005b858110156113d457848403895281516113b58582611350565b94506113c083611364565b925060208a0199505060018101905061139c565b50829750879550505050505092915050565b600060208201905081810360008301526114008184611371565b905092915050565b600081519050919050565b600082825260208201905092915050565b6000819050602082019050919050565b60008115159050919050565b61144981611434565b82525050565b600060a083016000830151848203600086015261146c82826112b4565b9150506020830151848203602086015261148682826112b4565b915050604083015184820360408601526114a082826112b4565b91505060608301516114b56060860182611246565b5060808301516114c86080860182611440565b508091505092915050565b60006114df838361144f565b905092915050565b6000602082019050919050565b60006114ff82611408565b6115098185611413565b93508360208202850161151b85611424565b8060005b85811015611557578484038952815161153885826114d3565b9450611543836114e7565b925060208a0199505060018101905061151f565b50829750879550505050505092915050565b6000602082019050818103600083015261158381846114f4565b905092915050565b61159481611121565b82525050565b60006020820190506115af600083018461158b565b92915050565b6000602082840312156115cb576115ca610fb1565b5b600082013567ffffffffffffffff8111156115e9576115e8610fb6565b5b6115f5848285016110d3565b91505092915050565b61160781611255565b811461161257600080fd5b50565b600081359050611624816115fe565b92915050565b6000602082840312156116405761163f610fb1565b5b600061164e84828501611615565b91505092915050565b600082825260208201905092915050565b60006116738261126e565b61167d8185611657565b935061168d81856020860161128a565b61169681610fc5565b840191505092915050565b600060208201905081810360008301526116bb8184611668565b905092915050565b6116cc81611434565b82525050565b600060a08201905081810360008301526116ec8188611668565b905081810360208301526117008187611668565b905081810360408301526117148186611668565b9050611723606083018561158b565b61173060808301846116c3565b9695505050505050565b61174381611255565b82525050565b600060808201905061175e600083018761158b565b61176b602083018661173a565b611778604083018561173a565b818103606083015261178a8184611668565b905095945050505050565b600081905092915050565b60006117ab8261126e565b6117b58185611795565b93506117c581856020860161128a565b80840191505092915050565b60006117dd82846117a0565b915081905092915050565b7f4e487b7100000000000000000000000000000000000000000000000000000000600052602260045260246000fd5b6000600282049050600182168061182f57607f821691505b602082108103611842576118416117e8565b5b50919050565b60008190508160005260206000209050919050565b60006020601f8301049050919050565b600082821b905092915050565b6000600883026118aa7fffffffffffffffffffffffffffffffffffffffffffffffffffffffffffffffff8261186d565b6118b4868361186d565b95508019841693508086168417925050509392505050565b6000819050919050565b60006118f16118ec6118e784611255565b6118cc565b611255565b9050919050565b6000819050919050565b61190b836118d6565b61191f611917826118f8565b84845461187a565b825550505050565b600090565b611934611927565b61193f818484611902565b505050565b5b818110156119635761195860008261192c565b600181019050611945565b5050565b601f8211156119a85761197981611848565b6119828461185d565b81016020851015611991578190505b6119a561199d8561185d565b830182611944565b50505b505050565b600082821c905092915050565b60006119cb600019846008026119ad565b1980831691505092915050565b60006119e483836119ba565b9150826002028217905092915050565b6119fd8261126e565b67ffffffffffffffff811115611a1657611a15610fd6565b5b611a208254611817565b611a2b828285611967565b600060209050601f831160018114611a5e5760008415611a4c578287015190505b611a5685826119d8565b865550611abe565b601f198416611a6c86611848565b60005b82811015611a9457848901518255600182019150602085019450602081019050611a6f565b86831015611ab15784890151611aad601f8916826119ba565b8355505b6001600288020188555050505b505050505050565b7f4e487b7100000000000000000000000000000000000000000000000000000000600052603260045260246000fd5b60008154611b0281611817565b611b0c8186611795565b94506001821660008114611b275760018114611b3c57611b6f565b60ff1983168652811515820286019350611b6f565b611b4585611848565b60005b83811015611b6757815481890152600182019150602081019050611b48565b838801955050505b50505092915050565b6000611b848284611af5565b915081905092915050565b7f446f6e6174696f6e20616d6f756e74206d75737420626520677265617465722060008201527f7468616e207a65726f0000000000000000000000000000000000000000000000602082015250565b6000611beb602983611657565b9150611bf682611b8f565b604082019050919050565b60006020820190508181036000830152611c1a81611bde565b9050919050565b7f496e737469747574696f6e206e6f7420617070726f7665640000000000000000600082015250565b6000611c57601883611657565b9150611c6282611c21565b602082019050919050565b60006020820190508181036000830152611c8681611c4a565b9050919050565b6000604082019050611ca2600083018561173a565b8181036020830152611cb48184611668565b90509392505050565b7f4e6f7420617574686f72697a6564000000000000000000000000000000000000600082015250565b6000611cf3600e83611657565b9150611cfe82611cbd565b602082019050919050565b60006020820190508181036000830152611d2281611ce6565b905091905056fea26469706673582212209c22c7cbb93b054e60dbf261d17a0f898e1b0448a93c37702bec1fa12ef314f364736f6c634300081c0033",
  "linkReferences": {},
  "deployedLinkReferences": {}
}